:100000000C9477010C9498010C9498010C9498012D
:100010000C9498010C9498010C9498010C949801FC
:100020000C9498010C9498010C9498010C949801EC
:100030000C9498010C9498010C9498010C949801DC
:100040000C9498010C9498010C9498010C949801CC
:100050000C9498010C9498010C9498010C949801BC
:100060000C9498010C9498010C9498010C949801AC
:100070000C9498010C9498010C9498010C9498019C
:100080000C9498010C9498010C9498010C9498018C
:100090000C9498010C9498010C9498010C9498017C
:1000A0000C9498010C9498010C9498010C9498016C
:1000B0000C9498010C9498010C9498010C9498015C
:1000C0000C9498010C9498010C9498010C9498014C
:1000D0000C9498010C9498010C9498010C9498013C
:1000E0000C9498010C9498010C9498010C9498012C
:1000F0000C9498010C9498010C9498010C9498011C
:100100000C9498010C9498010C9498010C9498010B
:100110000C9498010C9498010C9498010C949801FB
:100120000C9498010C9498010C9498010C949801EB
:100130000C9498010C9498010C9498010C949801DB
:100140000C9498010C9498010C9498010C949801CB
:100150000C9498010C9498010C9498010C949801BB
:100160000C9498010C9498010C9498010C949801AB
:100170000C9498010C9498010C9498010C9498019B
:100180000C9498010C9498010C9498010C9498018B
:100190000C9498010C9498010C9498010C9498017B
:1001A0000C9498010C9498010C9498010C9498016B
:1001B0000C9498010C9498010C9498010C9498015B
:1001C0000C9498010C9498010C9498010C9498014B
:1001D0000C9498010C9498010C9498010C9498013B
:1001E0000C9498010C9498010C9498010C9498012B
:1001F0000C9498010C94D6040C94160512034D002F
:10020000530046005400310030003000220000004E
:100210001003520075006E00740069006D006500E7
:1002200000001E034500780061006D0070006C0046
:1002300065002000440065007600690063006500E9
:1002400000002A034500780061006D0070006C001A
:10025000650020004D0061006E00750066006100C1
:1002600063007400750072006500720000000403F2
:10027000090409023400020100803209040000016F
:10028000030000000921110100012235000705814A
:10029000034000080904010000FE010210092109C1
:1002A00000000002010112010002000000409999C3
:1002B000070000010102030105010904A10005096D
:1002C000190129081500250195087501810205010C
:1002D000093009311581257F750895028102950342
:1002E0000900B2020195030900920201C000112425
:1002F0001FBECFEFCDBFDFE3DEBF00E00CBF10E2DB
:10030000A0E0B0E2EAE3FBE000E00BBF02C0079030
:100310000D92AA32B107D9F720E2AAE2B0E201C0F9
:100320001D92A83DB207E1F70E949A010C948A053C
:100330000C9400000E94AF04E0E4F6E080EB8183BF
:1003400080E1868390E59A95F1F78583E0EBF8E00C
:100350001682178213828CE0848383E0858382E592
:1003600080830E94270487E08093A20078940E94F3
:10037000890490E009C0E92FF0E0E65BFF4D808141
:10038000890F8F5F80839F5F9330A8F30E94A5023F
:10039000F0CF282F22952F702A3020F430E0205DF6
:1003A0003F4F03C030E0295C3F4FFB012083318386
:1003B0008F7090E08A30910514F4C09601C0C79602
:1003C000FB018283938308950F931F93CF93DF9351
:1003D000EEE4F0E283E081838CE2808310E088E049
:1003E000C0E5D0E20AC001E0080F0E949305BE01FB
:1003F0000E94C90124961F5F802F1630A0F380E170
:100400000E949305BE010E94C901249610E082E17A
:100410000AC001E0080F0E949305BE010E94C901B5
:1004200024961F5F802F1430A0F3DF91CF911F918E
:100430000F9108958091932090919420049751F406
:1004400040919520509196204832510530F048E275
:1004500050E003C00E94A604089521E060E070E22D
:1004600080E80E9441040E94960408951F93CF9350
:10047000DF93E0ECF1E0128512868330F9F028F486
:10048000813041F0823059F046C0813269F08232C9
:1004900081F041C066EA72E0C2E1D0E040C062E7AC
:1004A00072E0C4E3D0E03BC064E872E0C9E0D0E0B1
:1004B00036C068EB72E0C5E3D0E031C0623099F03D
:1004C00028F4662351F0613059F033C0603199F05F
:1004D0006E3EA1F0633069F509C06EE672E010C0AF
:1004E00062E472E00DC062E272E00AC00E94E401C0
:1004F0008EE290E020C060E172E002C06CEF71E03B
:10050000CB01072E000CAA0BBB0BABBFFC018791E4
:10051000C82FD0E004C0C0E0D0E060E070E0AE01E1
:100520008EE490E20E9481051093CA018C2F9D2FCA
:1005300002C080E090E0DF91CF911F91089582305A
:1005400010F481E0089580E0089581E80E946A0433
:100550008823D9F320E043E050E06AE470E281E8C8
:100560000E9441040895809190208330C9F128F4BD
:10057000813069F0823089F159C08A3009F44DC068
:100580008B3009F450C0893009F050C02CC08091E4
:10059000922090E082309105B9F083309105B9F056
:1005A0000197C1F480914A2090914B20A0914C205A
:1005B00080934E2090934F20A093502083E00E9480
:1005C0009D040E94960408950E94A60408950E9426
:1005D000A60408950E94A60408950E94A604089502
:1005E0000E94A60408958091922090E082309105A7
:1005F00041F08330910559F0019761F40E94A604FF
:10060000089580E00E949D040E948F0408950E9436
:10061000A60408950E94A604089580E00E949D0407
:100620000E94960408950E94A60408950E94A604BC
:10063000089580919020843079F128F4882341F046
:100640008330B9F037C0853069F1863029F132C086
:1006500084E491E4AFE4BCE480B991B9A2B9B3B940
:10066000A89563E180E890E00E948C050E949604C2
:10067000089580919520873008F086E0EEE4F0E25E
:10068000108292E0948311821282138215820E945A
:100690009D040E949604089580E00E949D040E949B
:1006A0009604089510924E2081E00E949D040E94BD
:1006B000960408950E94A604089580918F208F715A
:1006C00039F480919020823281F40E941A020895B8
:1006D000813059F48091932090919420009729F0D3
:1006E000019719F40E94190308950E94A604089521
:1006F00080E0089580919020853019F130F48130A8
:10070000D1F078F08330B9F06CC08830D1F118F4B2
:100710008630E9F066C08930F1F18B3009F44EC0C3
:1007200060C0EEE4F0E21082118282E00E949D043B
:100730000E949604089580E00E949D040E94960401
:10074000089580E00E949D040E9496040895EFE8B9
:10075000F0E2628183810E943602009779F0409135
:100760009520509196204817590708F0AC0121E0D8
:100770006EE470E280E80E94410408950E94A6049D
:10078000089580918E2080934E2081E00E949D04E8
:100790000E9496040895809191200E949F028823D0
:1007A00051F080E00E949D048091912080938E20E2
:1007B0000E94960408950E94A6040895EFE8F0E2CE
:1007C00062817381848195810E947803882331F04E
:1007D00080E00E949D040E94960408950E94A60451
:1007E00008950E94A604089580918F20807619F0C4
:1007F000803221F006C00E947A0308950E94B3025D
:1008000008950E945D030895EAE2F0E2A0ECB4E0EE
:100810001696ED93FC93179713961C9213971082DC
:1008200083E4818388E990E28483958382E08087F2
:1008300083E681878EE490E28487958782E2808FC9
:100840008BE8818F80912820806C8C9308951F9372
:10085000CF93DF931FB7F8948AE10E949305C0EC11
:10086000D4E08AAF8BE10E9493058BAF82E4888746
:1008700083E089871FBF0E940404DF91CF911F91FD
:1008800008950F93E82FEF73F0E0082E000C990BFA
:10089000A92FAA1FAA27AA1FB0E0EE0FFF1FEA0F79
:1008A000FB1FEE0FFF1FEE0FFF1FEE0FFF1FE65D9A
:1008B000FF4D648375831682178230E033272695B7
:1008C00037952227242B352B2283338302E206938C
:1008D0000F910895E82FEF73F0E0082E000C990BAC
:1008E000292F221F2227221F30E0EE0FFF1FE20FC9
:1008F000F31FEE0FFF1FEE0FFF1FEE0FFF1FE65D52
:10090000FF4D808182958695877091E0892781705F
:100910000895E0ECF4E081818160818308950F9374
:10092000EAE2F0E203E706930F9108950F93EAE2FB
:10093000F0E202E706930F910895482F50E021E07E
:100940006EE470E280E80E9441040895EAE2F0E279
:100950008181846081838185846081870895E0E559
:10096000F0E08BEC828380818860808380915100ED
:1009700083FFFCCFE0E5F0E083EC8583808180613C
:1009800080838091510084FFFCCF64E081E490E09B
:100990000E948C0564E080E490E00E948C0588E170
:1009A0008093500081E08093440008951F920F923D
:1009B0000FB60F9211240BB60F922F933F934F93C4
:1009C0005F936F937F938F939F93AF93BF93EF93B7
:1009D000FF938091CA048E7019F08EE08093CA0450
:1009E0008091CA0480FF03C081E08093CA04809193
:1009F000CB0484FF05C080E18093CA040E940404F4
:100A000080E68093CA04FF91EF91BF91AF919F91CF
:100A10008F917F916F915F914F913F912F910F90A7
:100A20000BBE0F900FBE0F901F9018951F920F9244
:100A30000FB60F9211240BB60F920F932F933F9383
:100A40004F935F936F937F938F939F93AF93BF93D6
:100A5000EF93FF93E0ECF4E0148283E084878091CD
:100A60002A2084FF1AC088E0E8E9F0E2AFE8B0E2AB
:100A700001900D928A95E1F7EAE2F0E202E3069333
:100A800080918F20882334F080919520909196203A
:100A9000892B31F40E94F40303C085FD0E94F40306
:100AA0008091322085FF11C080918F20807649F49B
:100AB00080919020853029F4809191208F778093C8
:100AC000C304E2E3F0E200E206938091422085FF56
:100AD00004C0E2E4F0E200E20693FF91EF91BF91DF
:100AE000AF919F918F917F916F915F914F913F91C6
:100AF0002F910F910F900BBE0F900FBE0F901F9074
:100B00001895FB01DC0102C005900D924150504048
:080B1000D8F70895F894FFCF17
:0E0B18001BBEFC0128ED24BF60832FBF089593
:060B260042E0992700C027
:0E0B2C00FC014093CA0184911092CA01089501
:100B3A00280000000001040001000000000000007D
:100B4A00010157494E5553420000000000000000C1
:0A0B5A000000000000000000010090
:00000001FF
